:200000000C946300FFFFFFFFFFFFFFFFFFFFFFFFFFFFFFFFFFFFFFFFFFFFFFFFFFFFFFFFF9
:20002000FFFFFFFFFFFFFFFFFFFFFFFFFFFFFFFF0C943107FFFFFFFFFFFFFFFFFFFFFFFF04
:200040000C949701FFFFFFFFFFFFFFFFFFFFFFFF0C94CA06FFFFFFFFFFFFFFFFFFFFFFFF10
:200060000C947E0C20E02D9301501040202F212BC9F7089525912D9301501040202F212B4B
:20008000C9F7089580EF92EAFC0105911491FC013296A591B491FC01349625913491422FED
:2000A000432B19F0F901E6DF01C0DCDF069612EA863F910748F308950E94B6000E941301B3
:2000C00000E010E008950FE20DBF01E00EBFC0E9D1E0F894A89504B7077F04BF0091600030
:2000E00008610093600000E0009360000E9442000E945C000E947E000C947E0000000C9411
:2001000000008A93219784B700E004BF9E010FEF12E00E94C321088103950883282F08818B
:2001200013E00E94922128810FEF12E00E94922180FB16F400E00DC082FB16F403E009C024
:2001400083FB16F402E005C081FB16F401E001C004E021968991089500919301013011F09F
:20016000043019F402E00093930108958A9300E00093930105EC10E0E0E9F1E000831183E2
:20018000C0DF009392010E949A180E94F60C0E94CA0C0E94B0130E94280D0E94490B0E9456
:2001A000410F0E94AA180E9439280E9461210E94C31E0E943620802F0E9414190E9467283A
:2001C00000919201002311F0033011F400E001C001E00E94D70E00919201023011F001300E
:2001E00011F410E401C010E001E00E94A80D882351F40E944B1E013021F404E000939301D1
:2002000009C001E0FBCF01E00093930110E40AE10E94A80D0E94790178940E9488010E9437
:20022000DA0C8991089504C005EC10E00083118300919301033009F458C00E949401013090
:2002400009F043C000E00E94910146E050E0E0E9F1E0008111810E941430412919F400E04E
:200260000E94CB1C0E946A280E94700B00919301013011F0043051F4013011F40E94B71332
:200280000E947D190E94150E0E94621946E050E0E0E9F1E0008111810E941430412919F4E4
:2002A00001E00E94CB1C00919301043011F00E94C60FE0E9F1E000811181012B09F4B4CFAA
:2002C0000081118101501040B1CF0E94141F00919301023009F0ACCF0E94AE1E023009F4AD
:2002E000A7CF03E000939301A3CF0E948D01F894FFCF00E00093940105BD02E004BD0EE720
:2003000007BD02E000936E0004E000939501089503E005BD00E006BD089500E005BD06BD42
:2003200008950093940108950091940108958A93FA93EA933A922A921A920A927A936A9397
:200340005A934A933A932A931A930A938FB700919501002331F404E00093950101E0E1DF9C
:2003600005C0E4E9F1E001810A9501830E94EB048FBF099119912991399149915991699110
:2003800079910990199029903990E991F99189911895EFE9F1E0008101600083089521E018
:2003A00030E003EA11E00E94540C21E030E001EA11E00E94540C02D000E0089500E000939C
:2003C000BA010093BB0102E00093BC010093BD0100E00093AE010093AD0142E050E029E0D2
:2003E00030EA0DE911E00E946F0C38D151D100E00093BF01E5EAF1E0018B028B0093C30171
:200400000093C2010093C1010E94910644D30895ECECF1E00081039500830091C1000F7727
:200420000093C10001E01091BA01112331F42DD35DD109EC0093BB0100E01091CC011123DE
:2004400029F0ECECF1E010811A9510831091CC01112329F41091C10010681093C10008956D
:20046000ECECF1E00081039500830091C1000F770093C1000091BB01002371F0E5EAF1E09A
:2004800006890A95068B0091BB01002329F41FEF03E00E94470C1FD10091CC01002329F0A0
:2004A000ECECF1E000810A9500830091CC01002329F40091C10000680093C100089520E0A7
:2004C000F8013181332351F43081373239F43381332321F40281013109F421E0022F0895EF
:2004E0001093B2010093B1010FE70093B00103E00093AF0101E10093AE0108950E9403316A
:20050000D8010C91003808F0A4C0FD010181073008F09FC081E000E00093AE018093AF017D
:200520000281005C0093B0010FEF0093B1010093B2010093B3010093B4010093B5010281B4
:20054000003B08F486C00281053B08F082C00181063009F07FC00C91013121F00C910F376E
:2005600009F078C00281005B29F00A9539F00A9539F170C013968D01A2DF6CC00481002306
:2005800009F068C00381073209F064C02581368100E001C00395023008F05CC012E0019FF2
:2005A000F001E15FFF45459154914217530791F7FD01278110E0F801E356FE4F20834AC00E
:2005C0008D010C5F1F4F7BDF002309F443C0FD010381002399F4E9E2F0EA04910093B50182
:2005E00000E00093B40101E10093B30100E00093B20107E20093B10106E01EC003810031DD
:2006000000F103810032E8F403810231D0F40381005110E0F801E356FE4F10811093B301B0
:2006200012E0019FF001E15FFF45259134913093B2012093B10104E00093AF0101E10093C1
:20064000AE010091AE01002329F412E102EB48DF01C080E0082FE4E00C94103100E015C0B2
:20066000E4E1F0EA05911491012B71F0E3E1F0EA449150E0E5E2F0EA25913491E4E1F0EAB5
:20068000059114910E946F0C01E0002349F308959A938A9381E01AC002E0809FF001EC5E64
:2006A000FF4505911491202F212B79F090E0FC01E55FFF45449142954F7050E0F001EB5DEE
:2006C000FF45259134910E946F0C8395823020F389919991089500E00093BA010093BB0103
:2006E0000E943F0CBBDFD4DFD6D108950091BA01002339F402E00093BA01B0DFC9DF0E94D7
:200700003B0C0895F3DF08958A930C3311F422E013C00D3711F423E00FC02FEF003461F092
:2007200042E0442349F04A9550E0FA01E356FE4F10811017B1F7242F2093AD012F3F19F4D8
:200740008F708C603CC030E0F901E55FFF4584912230B8F4082F0C70083089F502E0209F03
:20076000F001EC5EFF4525913491022F032B39F1482F42954F7050E005EA11E00E94600CCB
:200780001EC02430E0F4082F0C700830C1F40091BD01025019F00A9551F0D3CF0091AE0147
:2007A000002379F248E050E02EEA31E0E5CF0E943B08013031F605EA11E00E946309082F14
:2007C00070D10091BA01023019F403E00093BA01899108950E9403318091AD01013009F0A6
:2007E00068C0823060F502E0809FD001FD01EC5EFF4505911491202F212B51F090E0FC01E8
:20080000ED5EFF45449150E025EA31E00E94600C90E0FC01E85EFF450491E1EAF1E010815D
:20082000102B1083FD01E45EFF45259134912030390709F46DC0082FF901099569C0843085
:2008400008F066C00091A501002339F444DF02E00093BD010093BC015BC0E9E1F0EA0491F9
:20086000E1EAF1E01081102B108305EA11E046DE013051F40091BC01033011F40E94550A7C
:2008800002E00093BC0142C005EA11E00E944508013021F403E00093BC0137C0023029F496
:2008A00002E00093BC0103E031C0033049F300E0E8CF8230A8F4813041F4E6E1F0EA0591C1
:2008C0001491F80101810F77018390E0FC01E75EFF450491E3EAF1E01081102B108318C08E
:2008E000EBE1F0EA0491E3EAF1E01081102B10830091BD01023019F410E01093AE010330BD
:2009000039F40E941B0A033019F402E00093BD01E4E00C9410319A938A93902F007F09F446
:200920004FC08091AD01E6E1F0EA05911491F8010181006801838230A9F40091BD010230D6
:2009400019F410E01093AE01033021F00091BC01033029F402E00093BC010E94550A02E051
:200960000093BD01833081F40091BD01033029F402E00093BC010E94550A0091BD010230AB
:2009800019F400E00093AE01915159F09A9549F09A9551F09A9559F09A9579F09A9551F0A5
:2009A00017C0182F08E012C0182F09E00FC0182F07E00CC0182F06E009C0182F02E006C081
:2009C000955011F0925021F41FEF01E00E94470C899199910895ECECF1E000810395008330
:2009E0000091C1000F770093C1000091C2010F50A1F0025019F0025139F014C00091C30187
:200A00000093C10100E10CC00091C301E5EAF1E0148D100F148F00E203C000E00093C101A2
:200A20000093C2010091C1010023E1F0E5EAF1E0048D0A95048F0091C101002399F4009122
:200A4000C201003111F405E008C0003239F4028D07FF02C005E101C006E15DDF00E00093FD
:200A6000C20113D00091CC01002329F0ECECF1E000810A9500830091CC01002329F40091BB
:200A8000C10000680093C100089500E80093BE010E94290708950FEF0093BE010E942D076D
:200AA0000895BA93AA9325EA31E0E5EAF1E0238B348B402F42954F704093BF0100FB36F425
:200AC0002091C00130E0218B328B03C020E0218B228B50E0FA01E050F04614911093C30172
:200AE00013E21093C2010C700830B1F40091A5010E94C706A8EBB1E0ED91FC91008110E0FC
:200B0000E5EAF1E021893289200F311F218B328B01E00093BE010FC0043049F408E00093FA
:200B2000BE01E5EAF1E0028D0068028F04C0ADDF0FE00093C201A991B9910895E5EAF1E078
:200B400021893289890110E0030F111F018B128B31F0018912890F5F1F4F018B128B089563
:200B60000E940331802F09EC0093BB010091BE01005999F00052F1F00F5461F00250F9F058
:200B80000A9509F453C0065009F45FC00A9509F473C081C07ADFB6DD7EC0853539F003E034
:200BA000BADE73DF0FE00093C20175C000EB0093BE0171C08093C001082FA6DD6CC0A8EB16
:200BC000B1E0ED91FC910081801771F5E5EAF1E0028D0A95028F0091BF010023E1F00389CB
:200BE00014890F5F1F4F038B148BA8EBB1E0ED91FC9100810E94C706A8EBB1E0ED91FC9101
:200C0000008110E0E5EAF1E021893289200F311F218B328B40C092DFE5EAF1E00189009546
:200C20000E94C70602E0C3CF01E1BACF2EDF0FE00093C201E5EAF1E001890095801719F4B1
:200C400002E0C8DD28C001E125C090E0E5EAF1E001891289080F191F018B128BA389B48948
:200C60008D93A38BB48B0091BF010F770A950093BF0189F409E09BCF08DF0FE00093C20122
:200C80005DDFE5EAF1E001890095801711F401E0D8CF04E140DEE4E00C9410318A93802FC1
:200CA00009EC0093BB010091BE01005891F00051D1F00052C1F00F5449F00250C9F00A956C
:200CC000B9F00650D1F00A95C1F029C0DEDE1ADD26C0823021F500E90093BE0104E0009308
:200CE000C30101E11AC007E016DE8230A1F313C002E111DE823079F4EECF823051F4E5EA0C
:200D0000F1E0028D07FF03C005E105DEE4CF03E1FCCF03E100DEB9DE0FE00093C2018991C7
:200D2000089500E00093C1000093C50003E30093C40010E0E4ECF1E00683178300916F0099
:200D40000F7D00936F000091C00002600093C00008E10093C10006E00093C2000091C10035
:200D600000680093C1000BB103600BB900916400077F009364001093800001E0009381004A
:200D800010936F001093CE011093CC0108950093C60008958A93FA93EA933A922A921A9271
:200DA0000A927A936A935A934A933A932A931A930A938FB73091C0000091C6002091CE0151
:200DC000243029F400E00093CE0105E52FC0132F187161F134FBD6F40023B1F40091CD014A
:200DE000002381F0222371F400916400077F00936400B59A00916F00006200936F0005E0AB
:200E00000093CE0102E005C004E003C033FB1EF403E00E944E060091C1000F7E0093C100D6
:200E20000091C10000610093C10002C00E94B0058FBF0991199129913991499159916991BE
:200E400079910990199029903990E991F9918991189501E00093CD01089500E00093CD01D9
:200E600008959A938A93FA93EA935A934A933A932A931A930A935FB7B59A0091CE010530E9
:200E800011F401E04DC0013051F40091860010918700E4ECF1E00283138302E041C00230D9
:200EA00011F403E03DC00330E9F500916F000F7D00936F000091860010918700E4ECF1E0CE
:200EC000048315830481158122813381021B130B169507951695079500831183008111818E
:200EE000073621E0120710F400E01AC0008111810B3D1207C8F78081918104968C0143E04D
:200F00000E94083001501040268137812017310759F31093C5000093C4000683178304E076
:200F20000093CE015FBF099119912991399149915991E991F99189919991189504D003E5F4
:200F40000093D301089500E00093D4010093D501EFECF1E0008301830093D901089500918E
:200F6000D301033519F002E00E94480CECECF1E00081039500830091C1000F770093C10013
:200F80000091D901002309F1EFECF1E002850A9502870091D9010023C1F40091D4010023A2
:200FA00051F000E00093D40101E00E94330B00E00093D5010AC00091D501002331F000E049
:200FC0000093D50101E00E941B0B0091CC01002329F0ECECF1E000810A9500830091CC01BB
:200FE000002329F40091C10000680093C10008959A938A93C8010091D301033519F002E06B
:201000000E94480C803000E1900710F00E94480CECECF1E00081039500830091C1000F779F
:201020000093C1000091D401002379F403E00093D40102E30093D901EFECF1E08283938302
:2010400001E10093D70100E001C001E01091CC01112329F0ECECF1E010811A9510831091E9
:20106000CC01112329F41091C10010681093C1008991999108950091D401033011F0063063
:2010800011F401E0089500E008950E940331D8010C91003808F012C10C91013121F00C9184
:2010A0000F3709F04BC0FD010181007F39F0005109F451C0005109F49EC042C0018100230C
:2010C000F9F101810730E0F50091D501013059F400E00093D90101E00E941B0B00E000934A
:2010E000D4010093D5010091D401002359F000E00093D90101E00E94330B00E00093D4018A
:201100000093D501FD01218130E02F700C910E94030B0093D6010091D601013011F0023094
:2011200069F446E050E012969D010AED11E00E94600C00E00E941B0B82E0C1C083E0BFC053
:201140000091D501002311F081E0B9C00091D4010023A1F3F1CF81818F70982F80E00281A2
:20116000802B873000E0900758F30093D9010091D501013041F401E00E941B0B00E00093F5
:20118000D4010093D5010091D401002359F000E00093D90101E00E94330B00E00093D401E9
:2011A0000093D5019C010C910E94030B0093D6010091D601013011F0023001F645E050E05A
:2011C0009D012D5F3F4F0AED11E00E94600C05E00093D9010597EFECF1E08283938310E0BC
:2011E000008311830C910093D70101E00093D8010093D501A9CF0091D501013009F0A0CFA2
:2012000001810F701091D801011709F04BC00091D601EFECF1E042815381473010E05107CD
:20122000D8F4013051F412969D01608171810AED11E0060F171F0E94600C00E0EFECF1E086
:20124000028303830093D90182E00093D4010093D5010E941B0B33C0013061F446E050E04C
:2012600012969D01608171810AED11E0060F171F0E94600CEFECF1E0008111810A5F1F4F7E
:20128000008311830091D80103950F700093D80102811381065010400283138305E00093FA
:2012A000D90152CF00E00093D90101E00E941B0B00E00093D4010093D50140CF80E0082FE6
:2012C000E4E00C941031BA93AA93D8010091D401033009F054C000E00093D9010091D701AA
:2012E0000C93EFECF1E042815381473000E0500710F5FD0141832AED31E08D010E5F1F4F06
:201300000E94600CEFECF1E00281138146E050E0401B510B2FEF0E5F10E0A00FB11F8D0167
:201320000E94490C04E00093D40100E0EFECF1E00283038320C08A01012F0F700061FD015A
:201340000183428345E050E02AED31E013968D010E94600CEFECF1E002811381055010401A
:201360000283138301E00093D80105E010E0008311830093D4010AE00093D90159C006300B
:2013800009F053C000E00093D9010091D7010C930091D8010062FD010183EFECF1E0008171
:2013A00011812AED31E0200F311F42815381473000E05007E0F48D010E5F1F4F0E94600C64
:2013C000EFECF1E0028146E0202F421B50E02FEF0E5FA00FB51F8D010E94490C00E0EFEC8E
:2013E000F1E0008301830283038307E0C2CF46E050E012968D010E94600CEFECF1E00081CB
:2014000011810A5F1F4F0083118302811381065010400283138307E00093D4010091D801BB
:2014200003950F700093D801A6CF00E20E94480CA991B99108958A930091D401043081F48F
:2014400000E00093D4010093D9010E94330B802F882339F1813031F100E40E94480C22C0E4
:20146000053041F406E00093D4010AE00093D90181E018C00730A9F4EFECF1E0028113818D
:20148000012B81F700E00093D4010093D9010E94330B802F882329F0813021F000E10E945B
:2014A000480C83E0082F899108950091D401043021F0053011F0073059F400E00093D401DA
:2014C0000093D5010093D90101E00E94330B08950091D501013071F400E00093D401009300
:2014E000D501EFECF1E0028303830083018301E00E941B0B0895E6E6F2E002810C7F0283E1
:201500000281086002830895E6E6F2E0028100FF3BC002810E7F02830091DA01005149F018
:20152000025159F00C5061F00A9549F10F5059F029C02BD00E94432908950E94EA29089500
:201540000E94A32B089521D0E6E6F2E000811181013020E0120781F40091DB01002351F448
:201560000E94F32F01E010E0E6E6F2E0008311831CD0089502E101C003E12DD008950E94D4
:20158000AB29089501E127D00895EAEDF1E0018107FF0AC0E6E6F2E00281077F0283EAED67
:2015A000F1E001810F7701830895E6E6F2E0028103FD02C021D00895EAEDF1E00081005C3B
:2015C0000083E6E6F2E0008111810F5F1F4F0083118352D008951091DA011093DB011FE724
:2015E0001093DA010093DC0103E010E0E6E6F2E00083118341D00895E6E6F2E002810B7F1C
:2016000002833AD0089510E0E6E6F2E0428141FD10C0208331830E37028111F40B7F01C0D0
:20162000046002832D38310720F402810260028311E0012F0895EAEDF1E0108116FD0DC0CF
:20164000002359F4E6E6F2E00081118101501040008311830281096004C0E6E6F2E00281E0
:201660000D7F028308950E94FC28E6E6F2E002810D7F028300E00895E6E6F2E0028102FF25
:2016800005C0008111810E94F807089500E0EBDF089500E00093710203E00093730201E03B
:2016A0000093750200E010E0E9E6F2E0048305830683078302E30093740201E002831383A3
:2016C0000EE10093720207E512E0008311830E94CF010E949E070E947B0A0E94DE280895FA
:2016E0009A938A9300917502013029F402E0009375020E94080200917302002351F40E94A2
:2017000030020E94AF070E94840A03E00093730205C0E9E6F2E002850A9502870E94F7284E
:20172000EFE9F1E0008100FF1BC0009198010536B8F44091720250E004E110E00E94FA2F7F
:20174000C8010197E9E6F2E080839183EFE9F1E000810E7F008310E00BE10E94A80D1AC029
:20176000E9E6F2E000811181012B71F400919801053620F010E40BE10E94A80D00E0009305
:2017800098010093710206C000811181015010400083118389919991089500E00895E9E6EC
:2017A000F2E022813381232BD9F52FE030E022833383112312F400E010E0409174024423B2
:2017C000C1F02681378164817581261B370B200F311F2683378350E089010E941430E9E64A
:2017E000048315830F3720E0120740F00FE710E003C00F371307D0F7048315830091980122
:20180000002329F400E0048305830683078320919A01207804810F77202B20939A01089561
:201820000281138101501040028313830895013029F400919B010C7F026006C0002339F4BA
:2018400000919B010C7F016000939B010895E9E9F1E002810C7F028308950091980112E0B4
:20186000019F09EC001600E0100610F40092710200917102089502E000937502089500E0B4
:2018800000939801009371020093750208950895089506C041505040F801E40FF51F2083AB
:2018A000342F352BB9F7089507C02150304040E0F801E20FF31F4083422F432BB1F708956D
:2018C0000AC041505040F901E40FF51F6081F801E40FF51F6083642F652B99F708950AC03E
:2018E00041505040F901E40FF51F6491F801E40FF51F6083642F652B99F70895FA93EA9394
:201900001A920A924A933A932A931A930A934FB70091820210918302113061F40064009300
:201920007C0000917A00006400937A0000E00093830222C0209178003091790012E0019FE0
:20194000F001EA58FD4F20833183053031F41093840200E0009382020FC0E6E7F2E0048540
:201960000395048700918202006400937C0000917A00006400937A004FBF09911991299134
:201980003991499109901990E991F991189500918402089500E0009382020FE300937E0002
:2019A00000E400937C000FE000937A0000E000938402089503E010918402112311F0123021
:2019C000A1F401E00093840200E00093820201E00093830200917A00006800937A00009177
:2019E0007A00006400937A0001E00895089516B1109512951F70012F0370212F22FB20E02F
:201A000023F9022B212F23FB10E012F9012B089516B11F70012F0370212F22FB20E023F9C9
:201A2000022B212F23FB10E012F9012B089519B11C7315951595012F0370212F22FB20E08A
:201A400023F9022B212F23FB10E012F9012B08959D0100E00093AC0201E00093AA02009399
:201A6000A90203E00093AB0200E00093A8020093850202E00093860200E40093870204E080
:201A8000009388020093890208E000938A0204E000938B0200938C0208E000938D0204E0F1
:201AA00000938E0200938F0208E00093900204E0009391020093920208E0009393020093FE
:201AC00094020093950200E1009396020093970201E0009398020093990208E000939A02BB
:201AE00000939B0200939C0200939D0200939E0200939F0201E00093A0020093A10200930D
:201B0000A20208E00093A30200E10093A40200E20093A5020093A60200E40093A70200E090
:201B200013C014E0019FADEAB2E0A00DB11D10E0F801EB57FD4F10811C9310E012961C939C
:201B4000129711961C9303950C3158F3D901089524E0029FEDEAF2E0E00DF11D2281206281
:201B60002283103409F058C01081113019F421E010E007C0123039F412811064128322E0C7
:201B800011E0BED00895143059F41281106412831091AA022181210F218324E012E0F1CF83
:201BA000183059F41281106412831091AA022181210F218328E013E00FC0103179F4128126
:201BC00016FD32C01281106412831091AA022181210F218320E114E057D00895103261F451
:201BE000128116FD21C01281106412831091AA02118320E215E0F0CF1034B1F4128116FD9C
:201C000013C01281106412831091AA022181210F218320E416E0E0CF0081003129F00032EC
:201C200019F002810F7B028308959A938A9390E080E011C004E0809FEDEAF2E0E00DF11DDA
:201C4000028106FF02C00081902B028107FF02C0082F7FD083958C3168F39093A802899116
:201C60009991089510E024E0029FF001E355FD4F028106FD10E4012F089514E0019FF001C7
:201C8000E355FD4F008108958A93802F012F10E0E5E8F2E0E00FF11F148D04E0809FEDEA9D
:201CA000F2E0E00DF11D1130C9F00091AB023181031750F40081083011F0003129F4009176
:201CC000AA02018310830BC001813091AA02031729F40081003299F3003489F3208300912D
:201CE000AC020383E02FF0E031968F014FEF50E00E9414300092AC02082F2BD089910895FD
:201D0000422F30E0E5E8F2E0E10FF31F248D34E0039FEDEAF2E0E00DF11D2130C1F03091D3
:201D2000AB025181351740F43081343029F43091AA023183A9DF08950181002341F40081D1
:201D4000023029F40091AA02018320830895408308950E940331802F04E0809FADEAB2E022
:201D6000A00DB11D880F880F182FFD01318120E04C91242B06E00E94C920002389F48E5F99
:201D8000182FFD01338120E042814074242B06E00E94C920002321F4FD0102810F7703C011
:201DA000FD01028100680283E4E00C9410319A938A93902F80E007C020E02183992311F47B
:201DC000082FC7DF83958C3108F04DC004E0809F0DEA12E0000D111DF80120812F3F11F418
:201DE00020E0208321812F3F11F420E0218322812F3F11F420E0228323812F3F11F420E0B5
:201E000023832081222341F4282F30E0F901EB57FD4F2081F801208323813091AC02321779
:201E200010F42093AC02992319F02081283051F6228126FF07C02081203200F602810F7BB3
:201E40000283BCCF992309F0B9CF3091A9022181321708F0B1CF2081203208F0ADCF01817D
:201E6000031B0183ABCF8091AC0290E001968C014FEF50E00E9414300092AC02899199911B
:201E800008950BB1037C0BB90FE00093420305B1007F05B900E00093410306EB0093450369
:201EA00001EB0093460300E000931D0305E000931E030AE000931F030FE00093200303E106
:201EC0000093210308E10093220300E20093230306E40093240300E50093470307E000932F
:201EE000480302E00093490300934A0300E000934B0300934C030AE000934D0300E810E0AE
:201F0000EDE1F3E0008B118B08EC028B138B0AE0048B158B168B178B08E200934E0300E5CB
:201F200000934F031093540310934403109353030FE00093500310935203108F118F01E0F2
:201F4000028F138F10935503048F158F1093560310871187128713871093570310935803C3
:201F600014871587168717871093590310935A03068F178F00A311A312A313A300935B0302
:201F80000FE0009351031093430308950E94FB300E942D0CA02F00914303005031F00A9587
:201FA00009F4CDC20A9539F06BC3AA2309F468C301E06FD365C330914B0420914C041091AD
:201FC0004D043F3F21F02F3F11F01F3F11F400E001C00FE00093500300914603301738F48C
:201FE000201728F4101718F400E00093530300914503031720F0021710F0011718F401E071
:202000000093530300915703003109F070C0E9E4F4E04081518101E0009357034F3F0FE70C
:20202000500761F400E0EDE1F3E0008701870287038702A303A300935B035EC001E0009383
:202040005B0380914B03882309F447C08A01212F220F220B322F48EE53E060E070E00E94DF
:202060004030EDE1F3E04085518562857385041B150B260B370B43E00E946030280139016B
:20208000082F10E020E030E04AE050E060E070E00E944030A801B901820193010E948B3036
:2020A000EDE1F3E04085518562857385400F511F621F731F40875187628773870085118596
:2020C0002285338548EE53E060E070E00E948B30EDE1F3E002A313A30FC000E0EDE1F3E0FF
:2020E000008701870287038742A353A305C0EDE1F3E002AD039502AF80904803880C880C02
:20210000982C00E2900EB0905003BB2041F000915B03002321F0009151030F3031F0AA24A6
:20212000A486A586A686A7860DC000915303013039F4492D50E008E715E00E94143001C0AE
:2021400008ECA02E00914C03013009F0EDC000914A03002309F0E8C000914903002309F06B
:20216000E3C0EDE1068D178D01501040068F178F00A111A10150104000A311A300A111A13D
:20218000202F212B49F0268D378D232B29F401E010E0068F178F06C0012B21F401E010E0A5
:2021A00000A311A3068D178D012B09F0BFC040914D0350E004E110E00E94FA2F068F178FC1
:2021C00000914F03802F90E042A153A14017590714F008EC0EC0413010E0510714F400E008
:2021E00008C00023E1F308EC0E94FA2FAC010E942C304A2E5524401A590A652C660C660897
:20220000762CEDE1F3E04289538960E070E0820193010E944030C801D90100915A03002367
:20222000A9F54485558566857785483502E0500708EA60070DE770072CF007E512E028EAF0
:202240003DE70CC0483A0DEF500707E5600702E8700744F408EA1DEF27E532E80487158782
:20226000268737874489558960E070E0820193010E9440304485558566857785400F511F46
:20228000621F731F4487558766877787409058034689578960E070E00091590310E05524D9
:2022A00004191040212F220F220B322F0E94403040895189FA01452BC1F0409129035091F3
:2022C0002A0360912B0370912C03480F591F6A1F7B1F400F511F621F731F8A019B01AF01E7
:2022E00060E070E00E948B3004C000E010E020E030E0409259034A2D50E060E070E0401791
:2023000051076207730734F44093580301E000935A030CC033231AF450925803F7CF009395
:20232000580350925A0302C0A093580300915803099D800148EC50E00E9414302091490359
:20234000222319F4009356032DC0109151031F3041F000E00093560301E010E0EDE1F3E09F
:202360001FC0EDE1F3E0448D558D41505040448F558F448D558D452BA9F410915603101771
:2023800040F401AD039501AF02E0209F048E158E09C0011718F401AD0A95F5CF01E010E06E
:2023A000048F158F109156031815012F18F0081988E001C080E020915303222311F0183048
:2023C000A8F4003231F48660009147030093520311C003FB0EF4826004FB0EF4846010E0D9
:2023E0000770F801E35EFC4F0081F0CF00E00093520382E02091520330914703EDE1F3E0C5
:20240000008D118D42E0349F0015110530F0816001E010E0008F118F0DC0008D118D0F5F0A
:202420001F4F008F118F249F008D118D0016110608F08160222309F48E7F231709F48160A4
:2024400000915103902F9B2110914103912310914203109591239F7010914A03112319F406
:20246000809355033EC00F3039F001E010E0EDE1F3E0028F138F35C0028D138D0150104021
:20248000028F138F028D138D012B59F50E94170D202F2F702827292341F330E001C0339544
:2024A0003430F8F4022F10E0432F0E940E300170B1F3432F01E010E00E940230A02F0E94BC
:2024C000170D1A2F109501230F708A23802B8093550300914A0312E0019FEDE1F3E0028EE3
:2024E000138EEDE1F3E000AD092300AF0E94170D202F809155032F7020952823223058F05B
:2025000040914E0350E004E110E00E94FA2FEDE1F3E000A311A30BB1037C8370880F880F75
:20252000082BEDE1F3E010AD12FB10E015F9012B10AD13FB10E014F9012B0BB9A1C0009129
:202540004403ECE0F1EA0C94B63001E00093440300E000935503EDE1F3E007A9039507ABE6
:2025600063C0009154030430B1F702E00093440300E00093540358C003E00093440301E038
:20258000E8CFEDE1F3E005A100FDF2CF00915403043011F404E0EACF0023E9F601E000934B
:2025A0005503D9CF05E00093440302E0D2CFEDE1F3E005A101FDDCCF00915403043011F4C8
:2025C00006E0D4CF002339F602E0E9CF07E00093440304E0BECFEDE1F3E005A102FDC8CF77
:2025E00000915403043011F408E0C0CF0023C9F604E0D5CF09E00093440308E0AACFEDE1E7
:20260000F3E005A103FDB4CF00915403043011F40AE0ACCF002309F09ECF08E0C0CF00E058
:202620000093550302E035D02091420320951BB1137C30914103022F032330915503032327
:202640000370322F330FEDE1F3E044A142FB40E043F9342340AD42FB40E043F93423032BE3
:20266000269534A133FB30E032F9232330AD33FB30E032F92323022B000F000F102B1BB935
:20268000ECE00C9408310091430308950091440308958A93802F00914303002311F0833032
:2026A00011F400E014D08093430300914303002311F40FE00CD000914303033031F40BB143
:2026C000037C0BB90FE000934103899108958A93802F00914303023021F0002311F00130FF
:2026E00091F50E94170D0F70402F482340953BB1337C202F24232370102F12FB50E053F9D4
:20270000142F110F5123252B102F13FB00E002F946950423202B220F220F322B3BB9809357
:20272000420315B1107F082F0370282F22FB20E023F9022B282F23FB20E022F9022B009546
:202740000F70102B15B989910895002319F410E0109351030F3019F40FE000935103089564
:202760000E9430170E94BC130E94691808950E942F140E949C17089500E110E0ECE5F3E0F3
:202780000487158700EF13E00687178709E210E0008B118B07ED13E0028B138B00E0048B82
:2027A000058B068B078B008F018F028F038F048F058F068F078F009383030093840320E09F
:2027C00015C066E271E0022F10E045E00E940230E5E8F3E0E00FF11F02E0309FE00DF11D26
:2027E000608371833395303160F32395243010F430E0F9CF20E015C06FEF71E0022F10E0F9
:2028000045E00E940230E5E0F4E0E00FF11F02E0309FE00DF11D608371833395303160F328
:202820002395223010F430E0F9CF00E000937F03009380030093810300938203ECE5F3E0D4
:2028400000830183028303830483058306830783008701870287038700937E0308950E94CF
:20286000C70C023009F056C0BBD20023ECE5F3E002A109F04DC00E7102A3E6E7F2E02081E3
:20288000318100E07DD0ECE5F3E0068F178FE6E7F2E02281338101E073D0ECE5F3E0048F29
:2028A000158F0091840303950F7000938403E6E7F2E02481358100E0BAD0ECE5F3E0048B94
:2028C000158BE6E7F2E02681378101E0B0D0ECE5F3E0068B178BE6E7F2E02085318502E046
:2028E000A6D0ECE5F3E0028F138FE6E7F2E02285338503E09CD0ECE5F3E0008F118F0091DA
:20290000830303950F70009383030E94DA0C02C0016002A3ECE5F3E002A100FD25C000E0A8
:202920008CD1013029F40FEFECE5F3E0048B058B01E083D1013029F40FEFECE5F3E0068B75
:20294000078B03E07AD1013029F40FEFECE5F3E0008F018F01E0C2D0013089F40FEFECE5B8
:20296000F3E0048F058F08950FEF048B058B068B078B028F038F008F018F048F058F08957A
:202980001D01502F6091840370E002E0509FECE5F3E0E00DF11D452F01E010E00E94023049
:2029A000402F009180030423F1F0052F10E045E00E940230A5E0B4E0A00FB11F660F771FCC
:2029C000A60FB71F00851185020F131F4D915C911197041B150B0087118744E00E9408303F
:2029E0002D933C9322C000851185020F131F008711878B010F5F1F4F0031170729F4ECE544
:202A0000F3E004A1042B04A3052F10E045E00E940230E5E0F4E0E00FF11F660F771FE60FB3
:202A2000F71F208331830FEF11E0D10108951D01502F6091830370E002E0509FECE5F3E0F2
:202A4000E00DF11D452F01E010E00E940230402F00917F030423F1F0052F10E045E00E94ED
:202A60000230A5E8B3E0A00FB11F660F771FA60FB71F00811181020F131F4D915C91119726
:202A8000041B150B0083118344E00E9408302D933C9322C000811181020F131F0083118304
:202AA0008B010F5F1F4F0031170729F4ECE5F3E003A1042B03A3052F10E045E00E94023008
:202AC000E5E8F3E0E00FF11F660F771FE60FF71F2083318306E211E0D10108958A93202F36
:202AE000422F01E010E00E94023010918203102309F496C0ECE5F3E002A101FD1EC081E090
:202B000030E001C033953031A8F5022F10E045E00E940230E5E0F4E0E00FF11F02E0309FBB
:202B2000E00DF11D00811181ECE5F3E0408951890417150738F380E01DC080E030E001C070
:202B400033953031B8F4022F10E045E00E940230E5E0F4E0E00FF11F02E0309FE00DF11D42
:202B600000811181ECE5F3E0408951890417150738F781E0813051F410E401E10E94A80D11
:202B8000ECE5F3E002A1026002A354C002A101FD1EC081E030E001C033953031A8F5ECE58B
:202BA000F3E062897389022F10E045E00E940230E5E0F4E0E00FF11F02E0309FE00DF11DFD
:202BC000008111816017710738F380E01DC080E030E001C033953031B8F4ECE5F3E06289F6
:202BE0007389022F10E045E00E940230E5E0F4E0E00FF11F02E0309FE00DF11D0081118168
:202C00006017710738F781E0813009F4B5CF10E001E10E94A80DECE5F3E002A10D71B4CF92
:202C2000109184031F3029F4ECE5F3E016A1102B16A380E0082F899108959A938A93202FCA
:202C4000422F01E010E00E94023010918103102309F4B8C0222319F435E192E007C021309F
:202C600019F437E193E002C033E194E000917E0310E0492F0E940E30602F617081E050E027
:202C8000F1F001C05395503198F580E0022F10E045E00E940230E5E8F3E0E00FF11F02E0A1
:202CA000509FE00DF11D00811181ECE5F3E0048415840015110530F781E01AC0539550315C
:202CC000B8F4022F10E045E00E940230E5E8F3E0E00FF11F02E0509FE00DF11D00811181B0
:202CE000ECE5F3E0048415840015110538F380E0813079F410E4032F0E94A80D492F01E065
:202D000010E00E940230ECE5F3E012A1102B12A363C0222311F436E105C0213011F438E1F0
:202D200001C034E16623F1F080E050E001C053955031A8F5ECE5F3E066857785022F10E050
:202D400045E00E940230E5E8F3E0E00FF11F02E0509FE00DF11D008111816017710738F7DE
:202D600081E01DC081E050E001C053955031B8F4ECE5F3E066857785022F10E045E00E943B
:202D80000230E5E8F3E0E00FF11F02E0509FE00DF11D008111816017710738F380E0813058
:202DA00009F4A8CF10E0032F0E94A80D492F01E010E00E94023000950F71ECE5F3E012A19D
:202DC0001023A5CF109183031F3029F4ECE5F3E015A1102B15A380E0082F899199910895F4
:202DE0008A9381E000E001C00395053070F412E0019FE6E7F2E0E00DF11D2281338140813F
:202E000051812417350781F380E0882311F410E001C010E409E10E94A80D082F8991089511
:202E200020E030E01091840300E00BC01A9542E0149FF001EB5FFB4F40A151A1240F351F4C
:202E40000395043020F4112389F71FE0F0CF3695279536952795ECE5F3E020A331A308953A
:202E600000E000934B0400934C0400934D0400934E0410E0E5E4F4E00483058302E1EFE492
:202E8000F4E00083118301E1028313830BE20483158300E20683178306E70087118704E346
:202EA0000287138706E011E00487158708E410E0068717870DEC11E0008B118B0CE510E0F8
:202EC000028B138B0DED12E0048B158B0AE710E0068B178B02E513E0008F118F0EE810E0A9
:202EE000028F138F07E913E0048F158F02EA10E0068F178F01EC13E000A311A306EB10E056
:202F000002A313A308ED13E004A315A30AEC10E006A317A306EE13E000A711A70EED10E095
:202F200002A713A70FE712E0E5E4F4E0008311830AE2028313830895E8E7F3E00081118139
:202F40009AD0E5E4F4E004831583E0E7F3E00081118118D000934B04E2E7F3E00081118125
:202F600011D000934C04E4E7F3E0008111810AD000934D04E6E7F3E00081118103D0009305
:202F80004E040895BD010F3F2FEF120709F470C0EFE4F4E0248135810217130710F420E099
:202FA00039C0208531850217130710F421E032C0248535850217130710F422E02BC0208963
:202FC00031890217130710F423E024C0248935890217130710F424E01DC0208D318D021712
:202FE000130710F425E016C0248D358D0217130710F426E00FC020A131A10217130710F48F
:2030000027E008C024A135A10217130710F428E001C029E034E0239FAFE4B4E0A00DB11DC5
:2030200016964D915C91179712962D913C911397421B530B2D913C911197021B130B0E94C3
:20304000FA2F14964D915C9115972D913C911197421B530B0E942C3012962D9130E0020FB3
:20306000131F0F3F130710F00EEF03C011230AF40FEFDB0108950F3F2FEF1207F9F0E5E416
:20308000F4E020813181021B130B212F220F220B322F4EEC5FEF6FEF7FEF0E944030428196
:2030A000538160817181461B570B652F660F660B762F0E948B30055B1F4F08950FEF1FE7BB
:2030C00008950E941017ECE7F3E000811181D3DF089508950E94080D102F1170012F0895A1
:2030E0000E94080D0270059508950E94080D04700595059508950E94080D08700595059511
:20310000059508950E94F70C102F1170012F08950E94F70C0270059508950E94F70C0470DF
:203120000595059508950E94F70C0870059505950595089500EC02B901B900E005B90FEE3A
:2031400004B90FEF08B900E007B90CE30AB900EC0BB9089500E00093A5040093A604009368
:20316000A7040FE00093AA0400E00093A80407EC10E0EBE7F4E0048F158F0FE91FE0068F09
:20318000178F00E010E000A301A30093AC040093AD040093A3040AE00093A10404E1009317
:2031A000A20400939F0403E00093A0040FE00093A9040BEB00939D040DE900939E0406E9A6
:2031C000028F138F1093AB040AE00083118306E00283138308E20483158306E00683178356
:2031E00008E2008711870CE00287138700E50487158705E1068717870CE8008B118B0AE095
:203200000093A4040FEF00938D0400938E0400938F040093900410939104109392041093CB
:2032200093041093940408950E9403310091A40410E0EBE7F4E0008311830091A004980195
:20324000220F331F22833383A0919F04B0E0AD01440F551F44835583268337834087518716
:203260009801220F331F220F331F228733879D01220F331F220F331F2487358780914803E5
:2032800090E0AC010E94FA2F068717878D010E94FA2F008B118B4091A10404E110E00E94AE
:2032A000FA2FC8010197848F958F4091A20408EC10E00E94FA2FC8010197868F978FE4E0C7
:2032C0000C9410318A93A0D20091A304002399F4E8EAF2E0008103FF02C00E94AC00E8EA8D
:2032E000F2E0008102FF07C080E003C0082F85D383958430D8F3899108958A930091A6045B
:203300000093A7040E94080D0F700093A6040E94F70C0F7000950093A5040E94080D0F70D1
:20332000EBE7F4E012A5102312A70FE00093AA040091A50400934103E9E4F4E0008111814F
:203340000E94CF0B0E944313802F823009F089C028D2013099F410E40FE00E94A80D00E084
:203360000093A5040FE00E943D0E003118F000E00093AA0401E00093AB041CC00091AB049C
:20338000002369F410E00FE00E94A80DEBE7F4E002A50F7002A707A50F7007A70BC000E07E
:2033A0000093A5040FE00E943D0E003118F000E00093AA04F0D30AD20130EBE7F4E001A97B
:2033C000B9F4016001AB02E10E94320E002321F410E402E10E94A80D00E00093A50402E109
:2033E0000E943D0E0031E8F100E00093AA0439C000FD07C002A50F7002A707A50F7007A750
:2034000030C001A900FF1DC000919E0410914B041017B8F410914C04101798F410914D04AA
:20342000101778F410E002E10E94A80DEBE7F4E002A50F7002A707A50F7007A701A9027065
:203440000FC000E00093A50402E10E943D0E003118F000E00093AA04EBE7F4E001A90160A6
:2034600001AB882309F482C10E946A1800230091910481F40023C9F410E403E00E94A80DC5
:2034800003E00E943D0E003180F0EBE7F4E007A50E700AC0002349F410E003E00E94A80D97
:2034A000EBE7F4E007A50F7007A70E94821801300091910481F40023C9F410E404E00E942B
:2034C000A80D04E00E943D0E003180F0EBE7F4E007A50E700AC0002349F410E004E00E9455
:2034E000A80DEBE7F4E007A50F7007A70E94701800230091920481F40023C9F410E406E0F5
:203500000E94A80D06E00E943D0E003180F0EBE7F4E007A50D700AC0002349F410E006E011
:203520000E94A80DEBE7F4E007A50F7007A70E94881801300091920481F40023C9F410E4D2
:2035400007E00E94A80D07E00E943D0E003180F0EBE7F4E007A50D700AC0002349F410E0CF
:2035600007E00E94A80DEBE7F4E007A50F7007A70E94751800230091930481F40023C9F4BF
:2035800010E409E00E94A80D09E00E943D0E003180F0EBE7F4E007A50B700AC0002349F489
:2035A00010E009E00E94A80DEBE7F4E007A50F7007A70E948D1801300091930481F4002324
:2035C000C9F410E40AE00E94A80D0AE00E943D0E003180F0EBE7F4E007A50B700AC00023C7
:2035E00049F410E00AE00E94A80DEBE7F4E007A50F7007A70E947B1800230091940481F4E8
:203600000023C9F410E40CE00E94A80D0CE00E943D0E003180F0EBE7F4E007A507700AC086
:20362000002349F410E00CE00E94A80DEBE7F4E007A50F7007A70E949318013000919404D1
:2036400081F40023C9F410E40DE00E94A80D0DE00E943D0E003180F0EBE7F4E007A5077099
:203660000AC0002349F410E00DE00E94A80DEBE7F4E007A50F7007A7813009F077C00E94EA
:2036800046130230E9F40E946118980100E043D1013041F410E400E10E94A80D00E0009315
:2036A000A90404C010E000E10E94A80D0091A604002321F401E00093A80458C000E0FBCF1C
:2036C0000430A1F40E946118980101E024D1013051F410E405E00E94A80DEBE7F4E006A5A0
:2036E0000E7006A743C010E005E03EC0063099F40E946118980102E00ED1013049F410E42F
:2037000008E00E94A80DEBE7F4E006A50D70E9CF10E008E029C0083099F40E9461189801AA
:2037200003E0F9D0013049F410E40BE00E94A80DEBE7F4E006A50B70D4CF10E00BE014C01B
:203740000A30A1F40E946118980104E0E4D0013049F410E40EE00E94A80DEBE7F4E006A556
:203760000770BFCF10E00EE00E94A80DF9D0EBE7F4E012A5102312A7F3D0EBE7F4E017A5D8
:20378000102317A70091A504009341030E94CD0B013011F400E001C00FE00E94A513899173
:2037A0000895EBE7F4E0028D138DE9E4F4E0208131810217130744F4008111810F3F2FE7C1
:2037C000120711F001E0089500E0089510919D0400914B04101730F400914B040F3F11F038
:2037E00001E0089500914C04101720F400914C040F3FB1F700914D04101720F400914D0459
:203800000F3F71F700E00895E8EAF2E0008105FF05C0E9E9F1E0008101600083EBE7F4E0D9
:2038200001A901FF07C002E00E943D0E003110F000E001C001E00E94170CEBE7F4E007A57E
:20384000E9E9F1E000FF03C000810F7E02C0008100610083EBE7F4E007A5E9E9F1E001FFD9
:2038600003C000810F7D02C0008100620083EBE7F4E007A5E9E9F1E002FF03C000810F7B8C
:2038800002C0008100640083EBE7F4E007A5E9E9F1E003FF03C000810F7702C00081006892
:2038A0000083EBE7F4E001A900FF0AC002E10E943D0E003128F0E9E9F1E00081046004C007
:2038C000E9E9F1E000810B7F00830091A6041091A804112341F4002359F40091A7040F30DB
:2038E00039F401E003C00023E1F300E00093A804EBE7F4E005A50170E9E9F1E000FB008101
:2039000003F90083EEE7F3E0008101FF03C001E10E943D0E08950023D9F0000F102F1A95E7
:2039200042E0149FF001E558FB4F408151812417350714F401E0089512E0019FF001E558EA
:20394000FB4F0081118102171307A4F300E00895EBE7F4E00081118102171307BCF7EACF6B
:203960000FE010914B041F3F41F010914C041F3F21F010914D041F3F09F400E0E9E4F4E0AB
:20398000208131812F3F1FE7310709F400E01091A90401230895002351F400E00093AD04B0
:2039A0001C9B03C001E00093AD0416980895013019F51C9903C001E00093AD040091AD04FF
:2039C000002359F410E002E00E94A80DEBE7F4E001A901700093AC040EC010E402E00E9404
:2039E000A80D00E00093A90400934103EBE7F4E001A9026001AB169A0895BA93AA930023C3
:203A000011F411E00DC0013011F412E009C0023011F414E005C0033011F418E001C01FEF03
:203A2000202F30E0ABE7B4E0A20FB31F52962C9152973091420331233117E9F42F3F09F406
:203A4000A7C02330A0F0402F01E010E00E94023000951091420301230F700E94671300E0EE
:203A600056960C9356970FEF52960C9391C052960C910395FACF2F3FA1F02331C0F3402F9D
:203A800001E010E00E94023010914203012B0E94671302E056960C93569700E052960C9392
:203AA00077C00023E9F403E00E94320E003429F403E00E943D0E043061F004E00E94320E9E
:203AC000003409F065C004E00E943D0E043009F05FC000E000938D0401E00093910458C052
:203AE0000130E9F406E00E94320E003429F406E00E943D0E043061F007E00E94320E00344A
:203B000009F046C007E00E943D0E043009F040C000E000938E0401E00093920439C002306B
:203B2000D9F409E00E94320E003429F409E00E943D0E043051F00AE00E94320E003441F51B
:203B40000AE00E943D0E043019F500E000938F0401E0009393041CC00330D1F40CE00E94D9
:203B6000320E003429F40CE00E943D0E043051F00DE00E94320E003459F40DE00E943D0E3C
:203B8000043031F400E00093900401E000939404A991B9910895EBE7F4E0048D158D20A1FE
:203BA00031A120173107C8F402A50F7002A7E9E4F4E0008111810E3720E012074CF0EBE719
:203BC000F4E000A111A10F5F1F4F00A311A30895EBE7F4E020A321A3089542A54D7042A797
:203BE000468D578D400F511F2417350740F302A50F7002A700E000A301A308950E9402313D
:203C00002197D80144244C9284E090E006C00881FD0110811027108301968F3F940548F417
:203C20009E018C010E94C321002389F30FEF0C934394042D2196E5E00C940F318A9322975C
:203C400080E09E0100E012E00E94C321013009F481E0882359F4088103950883288100E051
:203C600012E00E949221013009F481E0882379F49E012F5F3F4F00E012E00E94C321013012
:203C800011F481E004C0088119810117D1F7082F229689910895EEEAF4E0068117812085E1
:203CA00031850A3A41E0140747E2240740E0340711F400E0089501E008950E940231219792
:203CC00080E090E0A0E0B0E044249E0100E010E00E94C321002311F4888101C0439444207A
:203CE00061F49E0101E010E00E94C321002319F40881902B02C044244394442061F49E01AC
:203D000002E010E00E94C321002319F42881A22B02C044244394442061F49E0103E010E079
:203D20000E94C321002319F40881B02B02C0442443948F300AEA900705E5A00700E0B007F6
:203D400011F044244394042D2196E5E00C940F3110E0F801EF53FA4F008108950CD00130F7
:203D600031F058D0002319F00FB3027011F002E0089500E008950091B204002311F001E051
:203D8000089500E0089500E00093B9040093B8040093BA0410E0EEEAF4E000830183028311
:203DA00003830093B2040FEF0093B30402E00093BD0400E01093BC040CC014E0019FE1EC46
:203DC000F4E0E00DF11D20E020832183228323830395003490F300E007C020E010E0F801A3
:203DE000EF53FA4F208303950D32B8F30FEF0093BB040AEA11E027E230E0EEEAF4E0068390
:203E00001783208731873093BE043093BF043093C00408950091B9041091B804011711F4B2
:203E200001E0089500E008950E940331219780E00FB3027009F016C19091BA04992309F001
:203E40009CC099DF013009F098C00091BC04013009F040C0A0EBB4E0ED91FC912081EEEAEE
:203E6000F4E0008111810E946421802F00E00093BC04882379F5EEEAF4E0008111810F5F0C
:203E80001F4F00831183028113810F5F1F4F0283138304810A95048302E00093BD0400911D
:203EA000B204002349F400E02091B30430E0F901EF53FA4F00830EC0013061F4E4EEF0EA8C
:203EC00005911491EEEAF4E0008311830BEB14E0028313830091B2040023A1F1882391F5B2
:203EE0000230E8F09E01EEEAF4E0008111810E94C321802F882399F40091BD04023079F4FC
:203F00000881EEEAF4E015851027158702811381F8010081EEEAF4E01585102715878823AA
:203F200089F4A0EBB4E0ED91FC912081EEEAF4E0008111810E947B21802F882319F401E0F4
:203F40000093BC04882309F487C0EEEAF4E007850A9507870091BD04002309F07DC000E02F
:203F60000093B20401E02091B30430E0F901EF53FA4F00833093BC046CC04CDF002309F0A1
:203F80006BC00091B80414E0019FA1ECB4E0A00DB11D905039F09A9581F09A95C9F09A95B9
:203FA00029F140C00D911C910F5F1F4F0E94D821802F8823D1F501E036C0FD0122810D91EF
:203FC0001C910E947B21802F882379F502E02BC0FD013381232F0D911C910F5F1F4F0E9494
:203FE000AB21802F882309F503E01DC0FD0122810D911C9111970E946421802F882391F443
:20400000FD013381232F0D911C910F5F1F4F0E946421802F882331F40091B80403950F7368
:204020000093B80400E00093BA04813091F4EEEAF4E007850A95078700E00093BA040091A3
:20404000BD04002349F40091B80403950F730093B80402E00093BD04813021F410E40AE1AE
:204060000E94A80D2196E4E00C9410310E94FE30219723DE902F992311F4E0DD902F99234C
:20408000A9F48E01BBDD013011F491E00FC02BEB34E0E4EEF0EA059114910E94C32100232C
:2040A000A1F708811091BB04011779F780E012C0920183010E94C32101E0600E00E0701E6B
:2040C00001E0400E00E0501E8394FD010491801678F383958D3218F521E0082F10E0F801B3
:2040E000EF53FA4F2083482F50E005E00E94FA2FAAE2B0EAA00FB11FFD0133964590549016
:20410000042D052931F3FD01319665907490992321F00FEF60167506E0F28824D6CF092F47
:204120002196E9E00C940B310E940231D901412E842F90E0402F50E005E010E00E94FA2FA3
:20414000EAE2F0EAE00FF11F3396059114913497012BD1F0049110E0282F30E0240D391F89
:20416000021713078CF0339605911491040D191F9D0140E0481748F4F80151918F01F90185
:2041800051939F014395F6CF91E0092FE5E00C940F310E940231402FD901812F02E0409030
:2041A000B904942D93959F731091B804911759F150E005E010E00E94FA2F98010AE210EAA9
:2041C000020F131F282F30E02F5F3F4FF80144912417350710F001E016C024E0429E21EC2C
:2041E00034E0200D311DF901A283B383F80131964591549110E0480F511FF9014083518318
:204200009093B90400E0E5E00C940F310E94FF30902F3901812F442EA0E0ADDD013011F40D
:20422000A2E04BC0492F50E005E010E00E94FA2F98010AE210EA020F131FF801249130E029
:20424000482F440D5A1F2417350730F0339625913491422F432B11F4A1E02FC0A301280F13
:204260003A1F60E007C0FA017191AF01F90171939F0163956415B8F3F801319645915491FC
:20428000480F5A1FEEEAF4E040835183F801339625913491280F3A1FEEEAF4E02283338337
:2042A00043944092B2049093B30402E02091B30430E0F901EF53FA4F00830A2FE8E00C94C2
:2042C0000C3100E00FBB08953FB3327091F4003038E0130760F4F89412BD01BDF89A00B52B
:2042E0007894021711F400E0089503E0089502E0089504E008953FB3327091F4003038E036
:20430000130760F4F8943FB33F703FBB12BD01BD20BDFA9AF99A789400E0089502E008956F
:2043200004E008953FB33270A1F4003038E0130770F4F8943FB33F703FBB12BD01BD20BD7C
:20434000FA9AF99A7894F999FECF00E0089502E0089504E008953FB3327099F4003038E0E5
:20436000130768F4F8943FB33F7030623FBB12BD01BD20BDFA9AF99A789400E0089502E012
:20438000089504E008954FB3427081F4003048E0140750F4F89412BD01BDF89A00B5F901C5
:2043A0000083789400E0089502E0089504E008952FB3227091F4003028E0120760F4F894C7
:2043C0002FB32F7020612FBB12BD01BDFA9AF99A789400E0089502E0089504E008959C0117
:2043E0008091010690E001968C0141E250E00E942C3040930106009102061091010610177E
:2044000049F410E00F5F1F4F41E250E00E942C3040930206C90108950E94033100E00093B7
:20442000000610E051C022E0129F24E036E0200D311DF901608171816E3F700791F44481F2
:204440005581452B71F401E040E0EEEEF5E046874787412F4E5F40930106409302060093FF
:2044600000066F3F40E07407A9F4F90142815381452B81F4002371F401E040E0EEEEF5E0A0
:2044800046874787412F43954093010640930206009300066F3F40E07407A9F4F901248166
:2044A00035812130340779F4002369F421E0EEEEF5E026874787412F4E5F409301064093D6
:2044C00002062093000613951F3100E008F4ABCF10910006112309F08DC0E2E4F6E0A081EF
:2044E000B181AF3F10E0B00791F4E4E4F6E020813181232B61F401E0EEEEF5E0168717870F
:2045000010E2109301061093020600930006E4E4F6E0808191818F3F10E0910789F4E4E073
:20452000F6E020813181232B59F401E0EEEEF5E016871787109301061093020600930006FC
:20454000AE3FB10799F4E4E0F6E020813181232B69F4002359F401E0EEEEF5E01687178754
:20456000109301061093020600930006AF3FB107A1F4E4E0F6E0208131812130310769F43F
:20458000002359F401E0EEEEF5E0068717871093010610930206009300068E3F910799F40E
:2045A000E4E0F6E022813381232B69F4002359F401E0EEEEF5E016871787009301060093F5
:2045C0000206009300068F3F9107A1F4E4E0F6E0228133812130310769F4002359F401E017
:2045E000EEEEF5E00687178700930106009302060093000610E036C08F3F9007C8F4228167
:20460000338101968217930799F4EEEEF5E0468557854217530760F42132300748F401E089
:2046200026873787212F23952093010620930206FD01808191818E3F20E0920790F42481F2
:20464000358102968217930761F4EEEEF5E0468557854217530728F4213240E0340708F4B3
:2046600040C0139520910006103200E008F04AC032E0139FA4E0B6E0A00DB11D2223FD011B
:204680008081918109F0B8CF8F3F9007B0F42281338101968217930781F4EEEEF5E046856C
:2046A00057854217530748F401E026873787212F23952093010620930206FD018081918155
:2046C0008E3F20E0920768F62481358102968217930739F6EEEEF5E04685578542175307B6
:2046E00000F6002309F0BDCFFD0124813581EEEEF5E026873787012F0E5F009301060093DD
:204700000206AFCFE4E4F6E080819181E2E4F6E0A081B181222309F086C0AF3FB007A0F4B6
:20472000FD013196E817F90779F4EEEEF5E0268537852817390740F401E08687978710E27F
:2047400010930106109302068F3F10E0910710F59C012F5F3F4FE4E0F6E040815181241788
:204760003507C1F4EEEEF5E026853785E4E0F6E0408151812417350768F4002359F401E0DF
:2047800020813181EEEEF5E0268737871093010610930206AE3FB10700F51296E4E0F6E079
:2047A00020813181A217B307C1F4EEEEF5E026853785E4E0F6E0408151812417350768F466
:2047C000002359F401E020813181EEEEF5E02687378710930106109302068E3F910708F067
:2047E000A4C0E4E0F6E02281338102968217930709F09BC0EEEEF5E046855785421753073A
:2048000008F093C0002309F090C0E4E0F6E002811381EEEEF5E00687178701E000930106D9
:204820000093020682C0AF3FB007B8F4FD013196E817F90791F4EEEEF5E0268537852817AA
:20484000390758F48132900740F401E08687978710E210930106109302068F3F10E09107A5
:2048600038F59C012F5F3F4FE4E0F6E04081518124173507E9F4EEEEF5E026853785E4E0F5
:20488000F6E0408151812417350790F4208131812132304068F4002359F401E0208131819E
:2048A000EEEEF5E0268737871093010610930206AE3FB10720F51296E4E0F6E02081318138
:2048C000A217B307E1F4EEEEF5E026853785E4E0F6E0408151812417350788F4A081B18105
:2048E000919768F4002359F401E020813181EEEEF5E02687378710930106109302068E3F52
:20490000910798F4E4E0F6E02281338102968217930759F4EEEEF5E046855785421753075F
:2049200020F42132310708F46DCF00E010E00DC022E0129FF001EC5FF94F208131812F3F0B
:204940004FEF340709F001E01395113288F3002379F400E0EEEEF5E006870787E4E0F6E0C8
:20496000008301830093010600E200930206D0D2E4E00C9410310E940131A0E060E0EEEE62
:20498000F5E0828193810081118108171907E9F44480558084159505C1F446815781441682
:2049A000550699F4208531854217530771F4028513852017310749F42081318120304FEFF0
:2049C000340718F4A1E0048715870081118108171907D1F44480558084159505A9F44681A1
:2049E00057814416550681F4208531854217530759F4AA2349F40081118100304FEF1407B4
:204A000018F4A1E0248735870081118108171907D1F44480558084159505A9F44681578183
:204A20004416550681F4028513854017510759F4AA2349F42081318120304FEF340718F4FF
:204A4000A1E0048715870081118108171907D1F44480558084159505A9F42085318542167B
:204A6000530681F4028513852017310759F4AA2349F42081318120304FEF340718F4A1E0DA
:204A8000048715870081118108171907D1F44681578184179507A9F4208531854217530757
:204AA00081F4028513852017310759F4AA2349F42081318120304FEF340718F4A1E0048768
:204AC0001587448055800081118104151505D1F44681578144165506A9F4208531854217F1
:204AE000530781F4028513852017310759F4AA2349F42081318120304FEF340718F4A1E059
:204B0000048715878415950531F5468157814416550609F52085318542175307E1F4028559
:204B2000138520173107B9F42081318120304FEF340788F420813181FC0131962E173F0787
:204B400051F0AA2341F48030940728F4A1E0EEEEF5E0048715878415950561F5EEEEF5E018
:204B6000468157814416550629F5208531854217530701F50285138520173107D9F42081C3
:204B8000318120304FEF340738F420813181FC0131962E173F0771F420910006213051F41A
:204BA000AA2341F48030940728F4A1E0EEEEF5E0048715878415950589F5EEEEF5E046810A
:204BC00057814416550651F5208531854217530729F5028513852017310701F520813181FF
:204BE00020304FEF340738F420813181FC0131962E173F0799F420910006222379F4EEEE4C
:204C0000F5E0268537852F3F360740F4AA2331F48030940718F4A1E0048715878415950555
:204C2000D9F5EEEEF5E04681578144165506A1F5208531854217530779F502851385201739
:204C4000310751F52081318120304FEF340738F420813181FC0131962E173F07E9F420915E
:204C600000062223C9F4EEEEF5E0268537852F3F360791F4AA2381F48F3F2EEF920760F4CA
:204C8000A1E00F5F1F4F0487158766876787A7DB00E00093030661E082010F5F1F4FEEEE3B
:204CA000F5E02081318120173107A9F5468157814416550681F5208531854217530759F599
:204CC000428553852417350731F580302FEF920718F480179107F9F4009100060023D9F482
:204CE000068517850F3F20E01207A9F4AA2399F40081118100302FEF120768F4A1E0008157
:204D000011810487158700E00687078768DB00E00093030661E0EEEEF5E0008111810817FC
:204D20001907C9F5468157818A010F5F1F4F8017910789F5208531854217530761F54285B7
:204D400053852417350739F520E042162FEF520618F440165106F9F4009100060023D9F4DB
:204D6000068517850F3F20E01207A9F4AA2399F40081118100302FEF120768F4A1E00081D6
:204D800011810487158700E00687078728DB00E00093030661E0EEEEF5E0008111810817BC
:204DA000190779F58415950561F546815781FA0131964E165F0629F5EEEEF5E02085318588
:204DC00042175307F1F40285138520173107C9F4009100060130A9F406851785012B89F4BB
:204DE000AA2379F40081118100302FEF120748F4A1E0008111810487158700E0009303068C
:204E000061E0EEEEF5E0008111810817190789F58415950571F52085318589010F5F1F4F76
:204E20004016510631F5428553852417350709F54681578140302FEF520718F4401751074A
:204E4000C1F4009100060130A1F406851785012B81F4AA2371F4008111810030120748F4AE
:204E6000A1E0008111810487158700E00093030661E0008111810817190781F584159505BF
:204E800069F5468157814416550641F5028513850F5F1F4F4017510709F5208531852030D7
:204EA0004FEF340718F420173107C1F4009100060130A1F406851785012B81F4AA2371F4F2
:204EC000008111810030140748F4A1E0008111810487158700E00093030661E0AA2391F46E
:204EE00000E0048705870083018302830383048305830683078300870187028703870093D2
:204F0000030661E0613009F403D0E6E00C940E310E94033100910306902F80E0109101060A
:204F200020910206121791F40C3021F40FC09E5F909303069C3050F4192FEEEEF5E024850F
:204F4000358503E20E94C920002389F30091010610910206011719F1009103060C30F9F462
:204F600002C090930206E0910206009101060E17B1F0F0E031968F0141E250E00E942C30F5
:204F8000942F192F110F02E0909FF001EC5FF94F2081318104E20E94C920002311F30091D5
:204FA000010610910206011709F460C0009103060C3009F45BC0A0910206009101060A172C
:204FC00029F4009103060C3009F450C0B0E08D010F5F1F4F41E250E00E942C30942F02E0E1
:204FE000909F24E036E0200D311DF90100811181012B99F410910306163078F4EEEEF5E01A
:205000002485358503E20E94C9200023F1F4EEEEF5E005890E5F058B26C0AA0FBB1FFD0102
:20502000EC5FF94F00811181012B89F410910306153068F01C3058F4EEEEF5E0248535852E
:2050400003E20E94C920002311F381E00CC0192F110FF9012081318104E20E94C920002343
:20506000A1F790930206882309F4A5CFE4E00C94103100E010E0EEEEF5E004870587009381
:2050800000060687078700930106008B018B0CE0009303061093020620E008C032E0239F6F
:2050A000F001EC5FF94F1083118323952132B0F3EEEEF5E010831183128313831483158365
:2050C0001683178310871187128713870895A4D952DC0895EEEEF5E000891189083B2BE034
:2050E000120709F051C001E010E0008B118B068517850F3F20E0120791F5268727876FD9DE
:20510000EEEEF5E0048515850F3F2EEF120720F000E00487058706C0048515850F5F1F4F6B
:20512000048715872485358520833183228333832483358300E04091010652E0459FF00115
:20514000EC5FF94F00830183EEEEF5E0268337832087318722873387009303061BC00685DD
:2051600017850F5F1F4F0687178739D9EEEEF5E0068517852091010632E0239FF001EC5FDA
:20518000F94F0083118306C0008911890F5F1F4F008B118BBDDE08950091010612E0019F62
:2051A000F001EC5FF94F008110E020E030E0EEEEF5E040815181142B252B089501E0009306
:2051C000510600E000934E060093500600934F060FEFE6E4F6E0028303830093520604E860
:2051E00013E0048315830FEF06830783089510D0009152062AD0089510914E06123039F42B
:20520000002329F400E000934E060E94AC000895E6E4F6E002811381202F212B59F00F3FB3
:205220002FEF120739F00281138101501040028313830895012B41F401E0009351060FEF74
:20524000028303830E94AC0008958A93802F8F3FC1F00E94A81E002361F40FEF0093520644
:2052600002E010E0E6E6F2E0008311830E94D50A08C0082F0E94A81E013019F402E70E94F6
:20528000EB0A89910895E6E6F2E000811181013020E0120789F50091DB01015029F00A9573
:2052A00091F00A9559F153C0009151060130C1F101E00093510602E000934E0600E00E9490
:2052C000491300E02BC000914F060130A9F002E00093510601E000934E06E6E4F6E0008142
:2052E00015E50083118310E02081318109E20E94C9200E94AC00089503E12AC00091500644
:205300000130D1F303E00093510604EBE6E4F6E00283238303E00E94491301E00093A30415
:20532000E6E4F6E0248135813093DC012093DD01268137813093DE012093DF0105E010E0D8
:20534000E6E6F2E0008311830E94D50A089501E30E94EB0A089500915106033099F53091F8
:20536000DB0120E00091DC01202B223201E0300779F5E6E6F2E000811181043020E01207C0
:2053800009F50091DD010330F9F40091DE010031C8F4202F1BB1137C0370000F000F102BAD
:2053A000022F02FB00E005F9102B022F03FB00E004F9102B1BB903E010E0008311830E94FF
:2053C000D50A089503E101C002E20E94EB0A089501E3FBCF9A938A9381E090E000915106E3
:2053E000013019F0033009F0A8C1E6E6F2E0008111810230190709F0A0C11091DB0100E024
:205400002091DC01022BE8E2F1EA0C94BA3041E010E02DED31E009E10E949420802F03E094
:20542000E6E6F2E00083918381C141E010E02DED31E00AE2F1CF41E010E02DED31E001E2EE
:20544000EBCF42E010E02DED31E00FE10E949420802F04E0E5CF42E010E02DED31E00EE19C
:20546000F5CF42E010E02DED31E000E2EFCF41E010E02DED31E00CE1CFCF41E010E02DED99
:2054800031E00DE1C9CF41E010E02DED31E00AE1C3CF4CE210E02DED31E008E10E94942034
:2054A000802F0EE2BDCFE8E7F3E0008111810093DD011093DE0180E0CCCF41E010E02DEDF3
:2054C00031E00BE1A9CF41E010E02DED31E002E2A3CF41E010E02DED31E008E29DCF41E012
:2054E00010E02DED31E005E097CF41E011E0F9CF41E012E0F6CF41E013E0F3CF41E014E0A9
:20550000F0CF41E015E0EDCF41E016E0EACF41E017E0E7CF41E018E0E4CF41E019E0E1CFC6
:2055200041E01AE0DECF41E01BE0DBCF41E01CE0D8CF41E01DE0D5CF41E01EE0D2CF41E076
:205540001FE0CFCF41E010E1CCCF41E011E1C9CF41E012E1C6CF41E013E1C3CF41E014E1F0
:20556000C0CF41E015E1BDCF41E016E1BACF41E017E1B7CF41E018E1B4CF41E019E1B1CF81
:2055800041E01AE1AECF41E010E02DED31E00BE243CF41E010E02DED31E00CE23DCF41E0E0
:2055A00010E02DED31E008E037CF41E010E02DED31E007E031CF41E011E0F9CF41E012E0D2
:2055C000F6CF41E013E0F3CF41E014E0F0CF41E015E0EDCF41E016E0EACF40E810E02DED88
:2055E00031E006E00E949420802F02E819CF41E010E02DED31E007E10FCF41E010E02DEDB0
:2056000031E005E109CF48E010E02DED31E003E10E949420802F0AE003CF41E010E02DEDA8
:2056200031E006E1F9CE41E010E02DED31E009E0F3CE41E010E02DED31E002E1EDCE41E0CA
:2056400010E02DED31E00BE0E7CE41E010E02DED31E00FE0E1CE42E010E02DED31E000E197
:20566000F5CE42E010E02DED31E00EE0EFCE42E010E02DED31E00CE0E9CE42E010E02DED73
:2056800031E00AE0E3CE41E010E02DED31E001E1C3CE41E010E02DED31E007E2BDCE41E0DE
:2056A00010E02DED31E004E1B7CE41E010E02DED31E00DE0B1CE41E010E02DED31E001E0A0
:2056C000ABCE41E010E02DED31E000E0A5CE0E94CC280093DD011093DE012093DF0180E046
:2056E00005E09ECE41E010E02DED31E004E094CE41E010E02DED31E002E08ECE41E010E04C
:205700002DED31E003E088CE9093DD0107E20093DE0102E00093DF0103E00093E00180E0BD
:2057200006E07ECE01E30E94EB0A91E3882319F40E94D50A05C0992319F403E10E94EB0A06
:205740008991999108959A938A9390E08FEF00915106033009F041C41091DB0100E0209109
:20576000DC01022BE0E1F2EA0C94BA30E6E6F2E0008111810330190751F441E010E02DED84
:2057800031E009E10E940621902F89E11FC403E11BC4E6E6F2E00081118103301907B9F7C2
:2057A00041E010E02DED31E00AE20E940621902F8AE20CC4E6E6F2E00081118103301907F9
:2057C00031F741E010E02DED31E001E20E940621902F81E2FBC3E6E6F2E0008111810430F4
:2057E0001907A9F642E010E02DED31E00FE10E940621902F8FE1EAC3E6E6F2E00081118167
:205800000430190721F642E010E02DED31E00EE10E940621902F8EE1D9C3E6E6F2E000813F
:2058200011810430190709F0B2CF42E010E02DED31E000E20E940621902F80E2C7C3E6E6A9
:20584000F2E0008111810330190709F0A0CF41E010E02DED31E00CE10E940621902F8CE18A
:20586000B5C3E6E6F2E0008111810330190709F08ECF41E010E02DED31E00DE10E94062163
:20588000902F8DE1A3C3E6E6F2E0008111810330190709F07CCF41E010E02DED31E00AE106
:2058A0000E940621902F8AE191C3E6E6F2E0008111810E32190709F06ACF4CE210E02DED26
:2058C00031E008E10E940621902F88E17FC3E6E6F2E0008111810330190709F058CF41E056
:2058E00010E02DED31E00BE10E940621902F8BE16DC3E6E6F2E0008111810330190709F080
:2059000046CF41E010E02DED31E002E20E940621902F82E25BC3E6E6F2E000811181033064
:20592000190709F034CF41E010E02DED31E008E20E940621902F88E249C3E6E6F2E0008108
:2059400011810330190709F022CF41E010E02DED31E005E00E940621902F85E037C3E6E6A4
:20596000F2E0008111810330190709F010CF41E011E0EDCFE6E6F2E0008111810330190745
:2059800009F005CF41E012E0E2CFE6E6F2E0008111810330190709F0FACE41E013E0D7CFF7
:2059A000E6E6F2E0008111810330190709F0EFCE41E014E0CCCFE6E6F2E000811181033099
:2059C000190709F0E4CE41E015E0C1CFE6E6F2E0008111810330190709F0D9CE41E016E09B
:2059E000B6CFE6E6F2E0008111810330190709F0CECE41E017E0ABCFE6E6F2E00081118146
:205A00000330190709F0C3CE41E018E0A0CFE6E6F2E0008111810330190709F0B8CE41E07D
:205A200019E095CFE6E6F2E0008111810330190709F0ADCE41E01AE08ACFE6E6F2E00081FE
:205A400011810330190709F0A2CE41E01BE07FCFE6E6F2E0008111810330190709F097CE2C
:205A600041E01CE074CFE6E6F2E0008111810330190709F08CCE41E01DE069CFE6E6F2E07B
:205A8000008111810330190709F081CE41E01EE05ECFE6E6F2E0008111810330190709F00F
:205AA00076CE41E01FE053CFE6E6F2E0008111810330190709F06BCE41E010E148CFE6E635
:205AC000F2E0008111810330190709F060CE41E011E13DCFE6E6F2E0008111810330190744
:205AE00009F055CE41E012E132CFE6E6F2E0008111810330190709F04ACE41E013E127CF55
:205B0000E6E6F2E0008111810330190709F03FCE41E014E11CCFE6E6F2E000811181033096
:205B2000190709F034CE41E015E111CFE6E6F2E0008111810330190709F029CE41E016E147
:205B400006CFE6E6F2E0008111810330190709F01ECE41E017E1FBCEE6E6F2E000811181F4
:205B60000330190709F013CE41E018E1F0CEE6E6F2E0008111810330190709F008CE41E02C
:205B800019E1E5CEE6E6F2E0008111810330190709F0FDCD41E01AE1DACEE6E6F2E00081AE
:205BA00011810330190709F0F2CD41E010E02DED31E00BE20E940621902F8BE207C2E6E695
:205BC000F2E0008111810330190709F0E0CD41E010E02DED31E00CE20E940621902F8CE2C7
:205BE000F5C1E6E6F2E0008111810330190709F0CECD41E010E02DED31E008E00E9406216A
:205C0000902F88E0E3C1E6E6F2E0008111810330190709F0BCCD41E010E02DED31E007E010
:205C20000E940621902F87E0D1C1E6E6F2E0008111810330190709F0AACD41E011E0EDCFA1
:205C4000E6E6F2E0008111810330190709F09FCD41E012E0E2CFE6E6F2E000811181033033
:205C6000190709F094CD41E013E0D7CFE6E6F2E0008111810330190709F089CD41E014E088
:205C8000CCCFE6E6F2E0008111810330190709F07ECD41E015E0C1CFE6E6F2E000811181CA
:205CA0000330190709F073CD41E016E0B6CFE6E6F2E0008111810238190709F068CD40E85B
:205CC00010E02DED31E006E00E940621902F86E07DC1E6E6F2E0008111810330190709F09A
:205CE00056CD41E010E02DED31E007E10E940621902F87E16BC1E6E6F2E00081118103305D
:205D0000190709F044CD41E010E02DED31E005E10E940621902F85E159C1E6E6F2E0008110
:205D200011810A30190709F032CD48E010E02DED31E003E10E940621902F83E147C1E6E698
:205D4000F2E0008111810330190709F020CD41E010E02DED31E006E10E940621902F86E113
:205D600035C1E6E6F2E0008111810330190709F00ECD41E010E02DED31E009E00E94062167
:205D8000902F89E023C1E6E6F2E0008111810330190709F0FCCC41E010E02DED31E002E113
:205DA0000E940621902F82E111C1E6E6F2E0008111810330190709F0EACC41E010E02DED48
:205DC00031E00BE00E940621902F8BE0FFC0E6E6F2E0008111810330190709F0D8CC41E053
:205DE00010E02DED31E00FE00E940621902F8FE0EDC0E6E6F2E0008111810430190709F0F7
:205E0000C6CC42E010E02DED31E000E10E940621902F80E1DBC0E6E6F2E000811181043069
:205E2000190709F0B4CC42E010E02DED31E00EE00E940621902F8EE0C9C0E6E6F2E0008100
:205E400011810430190709F0A2CC42E010E02DED31E00CE00E940621902F8CE0B7C0E6E695
:205E6000F2E0008111810430190709F090CC42E010E02DED31E00AE00E940621902F8AE07B
:205E8000A5C0E6E6F2E0008111810330190709F07ECC41E010E02DED31E001E10E9406216F
:205EA000902F81E193C0E6E6F2E0008111810330190709F06CCC41E010E02DED31E007E214
:205EC0000E940621902F87E281C0E6E6F2E0008111810330190709F05ACC41E010E02DED42
:205EE00031E004E10E940621902F84E16FC0E6E6F2E0008111810330190709F048CC41E05E
:205F000010E02DED31E00DE00E940621902F8DE05DC0E6E6F2E0008111810330190709F06A
:205F200036CC41E010E02DED31E001E00E940621902F81E04BC0E6E6F2E00081118103306A
:205F4000190709F024CC41E010E02DED31E000E00E940621902F80E039C0E6E6F2E000811C
:205F600011810330190709F012CC41E010E02DED31E004E00E940621902F84E027C0E6E6A6
:205F8000F2E0008111810330190709F000CC41E010E02DED31E002E00E940621902F82E0FC
:205FA00015C0E6E6F2E0008111810330190709F0EECB41E010E02DED31E003E00E9406216E
:205FC000902F83E003C001E30E94EB0A992319F48093520605C003E101C002E20E94EB0A48
:205FE00089919991089504EB10E0E6E4F6E0028313830895149F102D059F100D049F002D08
:20600000110D08954A951AF0000F111FFBCF08954A951AF016950795FBCF08954A951AF0B6
:2060200015950795FBCF089500241124EFE0001F111F001C111C0416150610F0041A150A81
:20604000EA95AAF7001F111FA0010095109508955195419550400895FF27552312F4F1607B
:20606000F7DF112312F4F09507D00E941430F0FD03D0F1FDEDCF089511950195104008959E
:206080002224349F302D259F300D169F300D079F300D249F202D310D159F200D311D069F92
:2060A000200D311D149F102D210D321D059F100D211D321D049F002D110D221D321D089591
:2060C0004A952AF0000F111F221F331FF9CF0895002411241001E0E2EA9592F0001F111F14
:2060E000221F331F001C111C221C331C041615062606370688F3041A150A260A370AECCFB5
:20610000001F111F221F331FA001B10100951095209530950895FF27772312F4F16015D0FD
:20612000332312F4F09509D00E946830F69508F404D0F69508F409C0089530952095109504
:2061400001951F4F2F4F3F4F089570956095509541955F4F6F4F7F4F089575916591559124
:206160004591159011FA259035900895F9DF041B10E003C0F4DF041B150B20E030E005C0F1
:20618000ECDF041B150B260B370BB8F010FC17C045910590E00FF11F0417100540E0240712
:2061A000340758F436F404910024F101E01BF0090994E00FF11F25903590F101099411F4E5
:2061C000D6F7F1CF31960EF0319650E060E070E045914B3F48F089F34F3F29F04E3F11F09D
:2061E0007591659155914591041B150B260B370B39F318F3E7CFBA92AA929A928A927A926C
:206200006A925A924A92BA93AA939A938A930895BB84AA84998488847F806E805D804C801D
:20622000BB81AA8199818881F0E0EC0FFD1FEF010895FFFFFFFFFFFFFFFFFFFFFFFFFFFF6E
:20624000FFFFFFFFFFFFFFFFFFFFFFFFFFFFFFFFFFFFFFFFFFFFFFFFFFFFFFFFFFFFFFFF5E
:20626000FFFFFFFFFFFFFFFFFFFFFFFFFFFFFFFFFFFFFFFFFFFFFFFFFFFFFFFFFFFFFFFF3E
:20628000FFFFFFFFFFFFFFFFFFFFFFFFFFFFFFFFFFFFFFFFFFFFFFFFFFFFFFFFFFFFFFFF1E
:2062A000FFFFFFFFFFFFFFFFFFFFFFFFFFFFFFFFFFFFFFFFFFFFFFFFFFFFFFFFFFFFFFFFFE
:20A00000020304050607070809FB648549848800000000039601990101020102C901FFFFD2
:20A02000FF007FFCFF1EA021A00101040050060105004F06010600BE04010700BF040108D4
:20A0400000C0041B0D008602804E01AD02072800A102012F00AB020130004A030236003376
:20A06000030131004C0302340031030138004F030232002F030139004D03023A002D03010A
:20A080003C004E03013D004803083E001D0301460047030147004603014800490301490043
:20A0A00045032C4B004F0401770072020178009E04027900A104017B00A004017D009F0426
:20A0C0000281004504027F00470402830095040185009D04018600A2040C0001EE05420C28
:20A0E00001040601FF00BB04040900B404014A004B03018700A40402FE07460601880074B8
:20A1000002018900A902018A00AA02FF000014130B00A512B112BC12C112D212D712E612C0
:20A12000EB12FA12FF120F13010501922B072A011B2A01212A012B2A01312A01372A013D0A
:20A140002A01432A01492A015D2A01632A01F72A01FD2A01032B014F2B01192B010D2B016A
:20A16000132B01492B011F2B01252B012B2B01312B01372B013D2B01432B01552B01692A8C
:20A1800001532A02152ADDCF2A016F2A01752A01782A017B2A017E2A01812A01842A01871B
:20A1A0002A018A2A018D2A01902A01932A01962A01992A019C2A019F2A01A22A01A52A01DB
:20A1C000A82A01AB2A01AE2A01B12A01B42A01B72A01BA2A01BD2A01C02A05D52A01DB2A9F
:20A1E00001DE2A01E12A01E42A01E72A01EA2A01C92A01C32AD8ED2A01672BFEFBFF5B2B32
:20A2000001612B0F722B01782B017E2B01842BFB010501E32FB62B01DA2B01EB2B01FC2BCD
:20A22000010D2C011F2C01312C01432C01552C01672C01792C01692E017B2E018D2E0165AA
:20A240002F01C32E019F2E01B12E01532F01D52E01E72E01F92E010B2F011D2F012F2F0182
:20A26000412F01772F018B2C03C92BDDF12D019D2C01AF2C01BA2C01C52C01D02C01DB2C99
:20A2800001E62C01F12C01FC2C01072D01122D011D2D01282D01332D013E2D01492D0154B5
:20A2A0002D015F2D016A2D01752D01802D018B2D01962D01A12D01AC2D01B72D01C22D05FB
:20A2C000032E01152E01202E012B2E01362E01412E014C2E01DF2D01CD2DD8572EFEFC00B1
:20A2E000892F019B2F0FAD2F01BF2F01D12FFB00C30490010000FFFFFFFFFFFFFFFFFFFFB7
:20A30000FFFFFFFFFFFFFFFFFFFFFFFFFFFFFFFFFFFFFFFFFFFFFFFFFFFFFFFFFFFFFFFF5D
:20A32000FFFFFFFFFFFFFFFFFFFFFFFFFFFFFFFFFFFFFFFFFFFFFFFFFFFFFFFFFFFFFFFF3D
:20A34000FFFFFFFFFFFFFFFFFFFFFFFFFFFFFFFFFFFFFFFFFFFFFFFFFFFFFFFFFFFFFFFF1D
:20A36000FFFFFFFFFFFFFFFFFFFFFFFFFFFFFFFFFFFFFFFFFFFFFFFFFFFFFFFFFFFFFFFFFD
:20BFE000FFFFFFFFFFFFFFFFFFFFFFFF46575F485643485F5253415F42345F56325F330095
:20C00000000000FF79E320E02D9301501040202F212BC9F7089525912D9301501040202F06
:20C02000212BC9F7089589E993EEFC0105911491FC013296A591B491FC01349625913491AA
:20C04000422F432B19F0F901E6DF01C0DCDF069613EE853A910748F3089503E20DBF01E05F
:20C060000EBFC4E6D1E0F894A89504B7077F04BF0091600008610093600000E000936000AB
:20C080000E9413600E94F36E0E9448600C94486000000C94007000EC02B901B900E005B9E7
:20C0A0000FEE04B90FEF08B900E007B90CE30AB900EC0BB9089501D0089500E00093700116
:20C0C00000937101EAE6F1E000830183048305830895EAE6F1E004811581012B09F10481A0
:20C0E0001581015010400483158304811581012BB9F400917001002349F000E000937001B4
:20C100000093710101E00E94CF6D089500917101002331F000E00093710101E00E94AC6DF6
:20C12000089520917001222381F423E02093700124E630E0EAE6F1E024833583028313832A
:20C1400001E10093730100E0089501E0089500917001033011F0063011F401E0089500E02C
:20C1600008950E94BB6FD8010C91003808F021C10C91013121F00C910F3709F051C0FD0103
:20C180000181007F39F0005109F457C0005109F4AAC048C00181002309F444C001810730F1
:20C1A00008F040C000917101013069F400E0EAE6F1E00483058301E00E94AC6D00E0009357
:20C1C00070010093710100917001002369F000E0EAE6F1E00483058301E00E94CF6D00E03C
:20C1E0000093700100937101FD01218130E02F700C910E94916D009372010091720101306F
:20C2000011F0023069F446E050E012969D010FEB11E00E94816F00E00E94AC6D82E0CAC0EE
:20C2200083E0C8C000917101002311F081E0C2C0009170010023A1F3F1CF81818F70982FC8
:20C2400080E00281802B873000E0900758F310E0EAE6F1E00483058300917101013039F4D6
:20C26000109370011093710101E00E94AC6D00917001002369F000E0EAE6F1E004830583EB
:20C2800001E00E94CF6D00E000937001009371019C010C910E94916D009372010091720112
:20C2A000013019F0023009F0BBCF45E050E09D012D5F3F4F0FEB11E00E94816F0AE010E02B
:20C2C000EAE6F1E00483158305978283938305E0008311830C910093730101E0009374015E
